{
  "txid": "5dd03c8f9669aae392c4c9df93e8eb518e7df9c79499b4d995e9b3e6d9e64755",
  "hash": "5dd03c8f9669aae392c4c9df93e8eb518e7df9c79499b4d995e9b3e6d9e64755",
  "version": 1,
  "size": 1248,
  "vsize": 1248,
  "weight": 4992,
  "locktime": 0,
  "vin": [
    {
      "txid": "3638714916ca95de9ec3887674d03271b6ba2b7459b21dc2a76e5a0669c957b1",
      "vout": 24,
      "scriptSig": {
        "asm": "30450221008387d14245ce55cfe528cbbd6fc28a32f8a1772261034e5b74a208e70557fc6e02201388d88053b6b7fba4630a97e78ae1b802473ae2473c4d85b7808245b8965f8c[ALL] 022be5a2829fa0291f9a51ff7aeceef702eef581f2611887c195e29da49092e6de",
        "hex": "4830450221008387d14245ce55cfe528cbbd6fc28a32f8a1772261034e5b74a208e70557fc6e02201388d88053b6b7fba4630a97e78ae1b802473ae2473c4d85b7808245b8965f8c0121022be5a2829fa0291f9a51ff7aeceef702eef581f2611887c195e29da49092e6de"
      },
      "sequence": 4294967295
    }
  ],
  "vout": [
    {
      "value": 0.00010000,
      "n": 0,
      "scriptPubKey": {
        "asm": "022be5a2829fa0291f9a51ff7aeceef702eef581f2611887c195e29da49092e6de OP_CHECKSIG",
        "hex": "21022be5a2829fa0291f9a51ff7aeceef702eef581f2611887c195e29da49092e6deac",
        "type": "pubkey"
      }
    },
    {
      "value": 0.00010000,
      "n": 1,
      "scriptPubKey": {
        "asm": "022be5a2829fa0291f9a51ff7aeceef702eef581f2611887c195e29da49092e6de OP_CHECKSIG",
        "hex": "21022be5a2829fa0291f9a51ff7aeceef702eef581f2611887c195e29da49092e6deac",
        "type": "pubkey"
      }
    },
    {
      "value": 0.00010000,
      "n": 2,
      "scriptPubKey": {
        "asm": "022be5a2829fa0291f9a51ff7aeceef702eef581f2611887c195e29da49092e6de OP_CHECKSIG",
        "hex": "21022be5a2829fa0291f9a51ff7aeceef702eef581f2611887c195e29da49092e6deac",
        "type": "pubkey"
      }
    },
    {
      "value": 0.00010000,
      "n": 3,
      "scriptPubKey": {
        "asm": "022be5a2829fa0291f9a51ff7aeceef702eef581f2611887c195e29da49092e6de OP_CHECKSIG",
        "hex": "21022be5a2829fa0291f9a51ff7aeceef702eef581f2611887c195e29da49092e6deac",
        "type": "pubkey"
      }
    },
    {
      "value": 0.00010000,
      "n": 4,
      "scriptPubKey": {
        "asm": "022be5a2829fa0291f9a51ff7aeceef702eef581f2611887c195e29da49092e6de OP_CHECKSIG",
        "hex": "21022be5a2829fa0291f9a51ff7aeceef702eef581f2611887c195e29da49092e6deac",
        "type": "pubkey"
      }
    },
    {
      "value": 0.00010000,
      "n": 5,
      "scriptPubKey": {
        "asm": "022be5a2829fa0291f9a51ff7aeceef702eef581f2611887c195e29da49092e6de OP_CHECKSIG",
        "hex": "21022be5a2829fa0291f9a51ff7aeceef702eef581f2611887c195e29da49092e6deac",
        "type": "pubkey"
      }
    },
    {
      "value": 0.00010000,
      "n": 6,
      "scriptPubKey": {
        "asm": "022be5a2829fa0291f9a51ff7aeceef702eef581f2611887c195e29da49092e6de OP_CHECKSIG",
        "hex": "21022be5a2829fa0291f9a51ff7aeceef702eef581f2611887c195e29da49092e6deac",
        "type": "pubkey"
      }
    },
    {
      "value": 0.00010000,
      "n": 7,
      "scriptPubKey": {
        "asm": "022be5a2829fa0291f9a51ff7aeceef702eef581f2611887c195e29da49092e6de OP_CHECKSIG",
        "hex": "21022be5a2829fa0291f9a51ff7aeceef702eef581f2611887c195e29da49092e6deac",
        "type": "pubkey"
      }
    },
    {
      "value": 0.00010000,
      "n": 8,
      "scriptPubKey": {
        "asm": "022be5a2829fa0291f9a51ff7aeceef702eef581f2611887c195e29da49092e6de OP_CHECKSIG",
        "hex": "21022be5a2829fa0291f9a51ff7aeceef702eef581f2611887c195e29da49092e6deac",
        "type": "pubkey"
      }
    },
    {
      "value": 0.00010000,
      "n": 9,
      "scriptPubKey": {
        "asm": "022be5a2829fa0291f9a51ff7aeceef702eef581f2611887c195e29da49092e6de OP_CHECKSIG",
        "hex": "21022be5a2829fa0291f9a51ff7aeceef702eef581f2611887c195e29da49092e6deac",
        "type": "pubkey"
      }
    },
    {
      "value": 0.00010000,
      "n": 10,
      "scriptPubKey": {
        "asm": "022be5a2829fa0291f9a51ff7aeceef702eef581f2611887c195e29da49092e6de OP_CHECKSIG",
        "hex": "21022be5a2829fa0291f9a51ff7aeceef702eef581f2611887c195e29da49092e6deac",
        "type": "pubkey"
      }
    },
    {
      "value": 0.00010000,
      "n": 11,
      "scriptPubKey": {
        "asm": "022be5a2829fa0291f9a51ff7aeceef702eef581f2611887c195e29da49092e6de OP_CHECKSIG",
        "hex": "21022be5a2829fa0291f9a51ff7aeceef702eef581f2611887c195e29da49092e6deac",
        "type": "pubkey"
      }
    },
    {
      "value": 0.00010000,
      "n": 12,
      "scriptPubKey": {
        "asm": "022be5a2829fa0291f9a51ff7aeceef702eef581f2611887c195e29da49092e6de OP_CHECKSIG",
        "hex": "21022be5a2829fa0291f9a51ff7aeceef702eef581f2611887c195e29da49092e6deac",
        "type": "pubkey"
      }
    },
    {
      "value": 0.00010000,
      "n": 13,
      "scriptPubKey": {
        "asm": "022be5a2829fa0291f9a51ff7aeceef702eef581f2611887c195e29da49092e6de OP_CHECKSIG",
        "hex": "21022be5a2829fa0291f9a51ff7aeceef702eef581f2611887c195e29da49092e6deac",
        "type": "pubkey"
      }
    },
    {
      "value": 0.00010000,
      "n": 14,
      "scriptPubKey": {
        "asm": "022be5a2829fa0291f9a51ff7aeceef702eef581f2611887c195e29da49092e6de OP_CHECKSIG",
        "hex": "21022be5a2829fa0291f9a51ff7aeceef702eef581f2611887c195e29da49092e6deac",
        "type": "pubkey"
      }
    },
    {
      "value": 0.00010000,
      "n": 15,
      "scriptPubKey": {
        "asm": "022be5a2829fa0291f9a51ff7aeceef702eef581f2611887c195e29da49092e6de OP_CHECKSIG",
        "hex": "21022be5a2829fa0291f9a51ff7aeceef702eef581f2611887c195e29da49092e6deac",
        "type": "pubkey"
      }
    },
    {
      "value": 0.00010000,
      "n": 16,
      "scriptPubKey": {
        "asm": "022be5a2829fa0291f9a51ff7aeceef702eef581f2611887c195e29da49092e6de OP_CHECKSIG",
        "hex": "21022be5a2829fa0291f9a51ff7aeceef702eef581f2611887c195e29da49092e6deac",
        "type": "pubkey"
      }
    },
    {
      "value": 0.00010000,
      "n": 17,
      "scriptPubKey": {
        "asm": "022be5a2829fa0291f9a51ff7aeceef702eef581f2611887c195e29da49092e6de OP_CHECKSIG",
        "hex": "21022be5a2829fa0291f9a51ff7aeceef702eef581f2611887c195e29da49092e6deac",
        "type": "pubkey"
      }
    },
    {
      "value": 0.00010000,
      "n": 18,
      "scriptPubKey": {
        "asm": "022be5a2829fa0291f9a51ff7aeceef702eef581f2611887c195e29da49092e6de OP_CHECKSIG",
        "hex": "21022be5a2829fa0291f9a51ff7aeceef702eef581f2611887c195e29da49092e6deac",
        "type": "pubkey"
      }
    },
    {
      "value": 0.00010000,
      "n": 19,
      "scriptPubKey": {
        "asm": "022be5a2829fa0291f9a51ff7aeceef702eef581f2611887c195e29da49092e6de OP_CHECKSIG",
        "hex": "21022be5a2829fa0291f9a51ff7aeceef702eef581f2611887c195e29da49092e6deac",
        "type": "pubkey"
      }
    },
    {
      "value": 0.00010000,
      "n": 20,
      "scriptPubKey": {
        "asm": "022be5a2829fa0291f9a51ff7aeceef702eef581f2611887c195e29da49092e6de OP_CHECKSIG",
        "hex": "21022be5a2829fa0291f9a51ff7aeceef702eef581f2611887c195e29da49092e6deac",
        "type": "pubkey"
      }
    },
    {
      "value": 0.00010000,
      "n": 21,
      "scriptPubKey": {
        "asm": "022be5a2829fa0291f9a51ff7aeceef702eef581f2611887c195e29da49092e6de OP_CHECKSIG",
        "hex": "21022be5a2829fa0291f9a51ff7aeceef702eef581f2611887c195e29da49092e6deac",
        "type": "pubkey"
      }
    },
    {
      "value": 0.00010000,
      "n": 22,
      "scriptPubKey": {
        "asm": "022be5a2829fa0291f9a51ff7aeceef702eef581f2611887c195e29da49092e6de OP_CHECKSIG",
        "hex": "21022be5a2829fa0291f9a51ff7aeceef702eef581f2611887c195e29da49092e6deac",
        "type": "pubkey"
      }
    },
    {
      "value": 0.00010000,
      "n": 23,
      "scriptPubKey": {
        "asm": "022be5a2829fa0291f9a51ff7aeceef702eef581f2611887c195e29da49092e6de OP_CHECKSIG",
        "hex": "21022be5a2829fa0291f9a51ff7aeceef702eef581f2611887c195e29da49092e6deac",
        "type": "pubkey"
      }
    },
    {
      "value": 0.05835635,
      "n": 24,
      "scriptPubKey": {
        "asm": "OP_DUP OP_HASH160 86ed8535ec4657b3e00f230db918152ded44133d OP_EQUALVERIFY OP_CHECKSIG",
        "hex": "76a91486ed8535ec4657b3e00f230db918152ded44133d88ac",
        "reqSigs": 1,
        "type": "pubkeyhash",
        "addresses": [
          "1DJS5uiC2tnB8K7DfXybjg8ShAACPz1E9K"
        ]
      }
    }
  ],
  "hex": "0100000001b157c969065a6ea7c21db259742bbab67132d0747688c39ede95ca1649713836180000006b4830450221008387d14245ce55cfe528cbbd6fc28a32f8a1772261034e5b74a208e70557fc6e02201388d88053b6b7fba4630a97e78ae1b802473ae2473c4d85b7808245b8965f8c0121022be5a2829fa0291f9a51ff7aeceef702eef581f2611887c195e29da49092e6deffffffff1910270000000000002321022be5a2829fa0291f9a51ff7aeceef702eef581f2611887c195e29da49092e6deac10270000000000002321022be5a2829fa0291f9a51ff7aeceef702eef581f2611887c195e29da49092e6deac10270000000000002321022be5a2829fa0291f9a51ff7aeceef702eef581f2611887c195e29da49092e6deac10270000000000002321022be5a2829fa0291f9a51ff7aeceef702eef581f2611887c195e29da49092e6deac10270000000000002321022be5a2829fa0291f9a51ff7aeceef702eef581f2611887c195e29da49092e6deac10270000000000002321022be5a2829fa0291f9a51ff7aeceef702eef581f2611887c195e29da49092e6deac10270000000000002321022be5a2829fa0291f9a51ff7aeceef702eef581f2611887c195e29da49092e6deac10270000000000002321022be5a2829fa0291f9a51ff7aeceef702eef581f2611887c195e29da49092e6deac10270000000000002321022be5a2829fa0291f9a51ff7aeceef702eef581f2611887c195e29da49092e6deac10270000000000002321022be5a2829fa0291f9a51ff7aeceef702eef581f2611887c195e29da49092e6deac10270000000000002321022be5a2829fa0291f9a51ff7aeceef702eef581f2611887c195e29da49092e6deac10270000000000002321022be5a2829fa0291f9a51ff7aeceef702eef581f2611887c195e29da49092e6deac10270000000000002321022be5a2829fa0291f9a51ff7aeceef702eef581f2611887c195e29da49092e6deac10270000000000002321022be5a2829fa0291f9a51ff7aeceef702eef581f2611887c195e29da49092e6deac10270000000000002321022be5a2829fa0291f9a51ff7aeceef702eef581f2611887c195e29da49092e6deac10270000000000002321022be5a2829fa0291f9a51ff7aeceef702eef581f2611887c195e29da49092e6deac10270000000000002321022be5a2829fa0291f9a51ff7aeceef702eef581f2611887c195e29da49092e6deac10270000000000002321022be5a2829fa0291f9a51ff7aeceef702eef581f2611887c195e29da49092e6deac10270000000000002321022be5a2829fa0291f9a51ff7aeceef702eef581f2611887c195e29da49092e6deac10270000000000002321022be5a2829fa0291f9a51ff7aeceef702eef581f2611887c195e29da49092e6deac10270000000000002321022be5a2829fa0291f9a51ff7aeceef702eef581f2611887c195e29da49092e6deac10270000000000002321022be5a2829fa0291f9a51ff7aeceef702eef581f2611887c195e29da49092e6deac10270000000000002321022be5a2829fa0291f9a51ff7aeceef702eef581f2611887c195e29da49092e6deac10270000000000002321022be5a2829fa0291f9a51ff7aeceef702eef581f2611887c195e29da49092e6deac730b5900000000001976a91486ed8535ec4657b3e00f230db918152ded44133d88ac00000000",
  "blockhash": "00000000000000000001b7f8c3fded86f198c356f6bdcc847edf93d4633aa755",
  "confirmations": 22292,
  "time": 1608623810,
  "blocktime": 1608623810
}
